{
  "contractName": "MoneyTransfer",
  "abi": [
    {
      "inputs": [],
      "payable": false,
      "stateMutability": "nonpayable",
      "type": "constructor"
    },
    {
      "anonymous": false,
      "inputs": [
        {
          "indexed": true,
          "internalType": "address",
          "name": "_from",
          "type": "address"
        },
        {
          "indexed": true,
          "internalType": "address",
          "name": "_to",
          "type": "address"
        },
        {
          "indexed": false,
          "internalType": "uint256",
          "name": "_value",
          "type": "uint256"
        }
      ],
      "name": "Transfer",
      "type": "event"
    },
    {
      "constant": false,
      "inputs": [
        {
          "internalType": "address",
          "name": "receiver",
          "type": "address"
        },
        {
          "internalType": "uint256",
          "name": "amount",
          "type": "uint256"
        }
      ],
      "name": "sendCoin",
      "outputs": [
        {
          "internalType": "bool",
          "name": "sufficient",
          "type": "bool"
        }
      ],
      "payable": false,
      "stateMutability": "nonpayable",
      "type": "function"
    },
    {
      "constant": true,
      "inputs": [
        {
          "internalType": "address",
          "name": "addr",
          "type": "address"
        }
      ],
      "name": "getBalanceInEth",
      "outputs": [
        {
          "internalType": "uint256",
          "name": "",
          "type": "uint256"
        }
      ],
      "payable": false,
      "stateMutability": "view",
      "type": "function"
    },
    {
      "constant": true,
      "inputs": [
        {
          "internalType": "address",
          "name": "addr",
          "type": "address"
        }
      ],
      "name": "getBalance",
      "outputs": [
        {
          "internalType": "uint256",
          "name": "",
          "type": "uint256"
        }
      ],
      "payable": false,
      "stateMutability": "view",
      "type": "function"
    }
  ],
  "bytecode": "0x608060405234801561001057600080fd5b506127106000803273ffffffffffffffffffffffffffffffffffffffff1673ffffffffffffffffffffffffffffffffffffffff168152602001908152602001600020819055506103d6806100656000396000f3fe608060405234801561001057600080fd5b50600436106100415760003560e01c80637bd703e81461004657806390b98a111461009e578063f8b2cb4f14610104575b600080fd5b6100886004803603602081101561005c57600080fd5b81019080803573ffffffffffffffffffffffffffffffffffffffff16906020019092919050505061015c565b6040518082815260200191505060405180910390f35b6100ea600480360360408110156100b457600080fd5b81019080803573ffffffffffffffffffffffffffffffffffffffff16906020019092919080359060200190929190505050610200565b604051808215151515815260200191505060405180910390f35b6101466004803603602081101561011a57600080fd5b81019080803573ffffffffffffffffffffffffffffffffffffffff169060200190929190505050610359565b6040518082815260200191505060405180910390f35b600073__ConvertLib____________________________6396e4ee3d61018184610359565b60026040518363ffffffff1660e01b8152600401808381526020018281526020019250505060206040518083038186803b1580156101be57600080fd5b505af41580156101d2573d6000803e3d6000fd5b505050506040513d60208110156101e857600080fd5b81019080805190602001909291905050509050919050565b6000816000803373ffffffffffffffffffffffffffffffffffffffff1673ffffffffffffffffffffffffffffffffffffffff1681526020019081526020016000205410156102515760009050610353565b816000803373ffffffffffffffffffffffffffffffffffffffff1673ffffffffffffffffffffffffffffffffffffffff16815260200190815260200160002060008282540392505081905550816000808573ffffffffffffffffffffffffffffffffffffffff1673ffffffffffffffffffffffffffffffffffffffff168152602001908152602001600020600082825401925050819055508273ffffffffffffffffffffffffffffffffffffffff163373ffffffffffffffffffffffffffffffffffffffff167fddf252ad1be2c89b69c2b068fc378daa952ba7f163c4a11628f55a4df523b3ef846040518082815260200191505060405180910390a3600190505b92915050565b60008060008373ffffffffffffffffffffffffffffffffffffffff1673ffffffffffffffffffffffffffffffffffffffff16815260200190815260200160002054905091905056fea265627a7a72315820ba56d2731b2b5979e302d1ac5f2a04230bad48328ddd36ab6175774b8822683464736f6c63430005100032",
  "source": "/*pragma solidity ^0.5.0;\r\ncontract MoneyTransfer {\r\n  address payable from;\r\n  address payable to;\r\n  constructor() public {\r\n    from = msg.sender;\r\n  }\r\n  event Pay(address _to, address _from, uint amt);\r\n  function pay( address payable _to ) public payable returns\r\n  (bool) {\r\n    to = _to;\r\n    to.transfer(msg.value);\r\n    emit Pay(to, from, msg.value);\r\n    return true;\r\n  }\r\n}*/\r\npragma solidity ^0.5.0;\r\nimport \"./ConvertLib.sol\";\r\ncontract MoneyTransfer {\r\n  mapping (address => uint) balances;\r\n\r\n  event Transfer(address indexed _from, address indexed _to, uint256 _value);\r\n\r\n  constructor() public {\r\n    balances[tx.origin] = 10000;\r\n  }\r\n\r\n  function sendCoin(address receiver, uint amount) public returns(bool sufficient) {\r\n    if (balances[msg.sender] < amount) return false;\r\n    balances[msg.sender] -= amount;\r\n    balances[receiver] += amount;\r\n    emit Transfer(msg.sender, receiver, amount);\r\n    return true;\r\n  }\r\n\r\n  function getBalanceInEth(address addr) public view returns(uint){\r\n    return ConvertLib.convert(getBalance(addr),2);\r\n  }\r\n\r\n  function getBalance(address addr) public view returns(uint) {\r\n    return balances[addr];\r\n  }\r\n}\r\n",
  "sourcePath": "C:\\Users\\rymou\\Documents\\clubisti\\front\\truffle\\contracts\\MoneyTransfer.sol",
  "compiler": {
    "name": "solc",
    "version": "0.5.16+commit.9c3226ce.Emscripten.clang"
  },
  "schemaVersion": "3.1.0",
  "updatedAt": "2020-05-05T14:43:42.194Z",
  "devdoc": {
    "methods": {}
  },
  "userdoc": {
    "methods": {}
  }
}