{
  "contractName": "MoneyTransfer",
  "abi": [
    {
      "inputs": [],
      "payable": false,
      "stateMutability": "nonpayable",
      "type": "constructor"
    },
    {
      "anonymous": false,
      "inputs": [
        {
          "indexed": false,
          "internalType": "address",
          "name": "_to",
          "type": "address"
        },
        {
          "indexed": false,
          "internalType": "address",
          "name": "_from",
          "type": "address"
        },
        {
          "indexed": false,
          "internalType": "uint256",
          "name": "amt",
          "type": "uint256"
        }
      ],
      "name": "Pay",
      "type": "event"
    },
    {
      "constant": false,
      "inputs": [
        {
          "internalType": "address payable",
          "name": "_to",
          "type": "address"
        }
      ],
      "name": "pay",
      "outputs": [
        {
          "internalType": "bool",
          "name": "",
          "type": "bool"
        }
      ],
      "payable": true,
      "stateMutability": "payable",
      "type": "function"
    }
  ],
  "bytecode": "0x608060405234801561001057600080fd5b50336000806101000a81548173ffffffffffffffffffffffffffffffffffffffff021916908373ffffffffffffffffffffffffffffffffffffffff16021790555061024b806100606000396000f3fe60806040526004361061001e5760003560e01c80630c11dedd14610023575b600080fd5b6100656004803603602081101561003957600080fd5b81019080803573ffffffffffffffffffffffffffffffffffffffff16906020019092919050505061007f565b604051808215151515815260200191505060405180910390f35b600081600160006101000a81548173ffffffffffffffffffffffffffffffffffffffff021916908373ffffffffffffffffffffffffffffffffffffffff160217905550600160009054906101000a900473ffffffffffffffffffffffffffffffffffffffff1673ffffffffffffffffffffffffffffffffffffffff166108fc349081150290604051600060405180830381858888f1935050505015801561012a573d6000803e3d6000fd5b507f288d9a5737d39d766acb848da277a970d9ee31f9115e17490b9393e282fa7b4d600160009054906101000a900473ffffffffffffffffffffffffffffffffffffffff166000809054906101000a900473ffffffffffffffffffffffffffffffffffffffff1634604051808473ffffffffffffffffffffffffffffffffffffffff1673ffffffffffffffffffffffffffffffffffffffff1681526020018373ffffffffffffffffffffffffffffffffffffffff1673ffffffffffffffffffffffffffffffffffffffff168152602001828152602001935050505060405180910390a16001905091905056fea265627a7a72315820d013c2d19b7f4de1638506c8f2b4d73533326795228dcf3c0aa90618d11e389764736f6c63430005100032",
  "source": "pragma solidity ^0.5.0;\r\ncontract MoneyTransfer {\r\n  address payable from;\r\n  address payable to;\r\n  constructor() public {\r\n    from = msg.sender;\r\n  }\r\n  event Pay(address _to, address _from, uint amt);\r\n  function pay( address payable _to ) public payable returns\r\n  (bool) {\r\n    to = _to;\r\n    to.transfer(msg.value);\r\n    emit Pay(to, from, msg.value);\r\n    return true;\r\n  }\r\n}\r\n",
  "sourcePath": "C:\\Users\\rymou\\Documents\\clubisti\\front\\truffle\\contracts\\MoneyTransfer.sol",
  "compiler": {
    "name": "solc",
    "version": "0.5.16+commit.9c3226ce.Emscripten.clang"
  },
  "schemaVersion": "3.1.0",
  "updatedAt": "2020-05-01T16:46:26.668Z",
  "devdoc": {
    "methods": {}
  },
  "userdoc": {
    "methods": {}
  }
}