{
  "contractName": "MoneyTransferTest1",
  "abi": [
    {
      "inputs": [
        {
          "internalType": "address",
          "name": "origin",
          "type": "address"
        }
      ],
      "payable": false,
      "stateMutability": "nonpayable",
      "type": "constructor"
    },
    {
      "anonymous": false,
      "inputs": [
        {
          "indexed": true,
          "internalType": "address",
          "name": "_from",
          "type": "address"
        },
        {
          "indexed": true,
          "internalType": "address",
          "name": "_to",
          "type": "address"
        },
        {
          "indexed": false,
          "internalType": "uint256",
          "name": "_value",
          "type": "uint256"
        }
      ],
      "name": "Transfer",
      "type": "event"
    },
    {
      "constant": false,
      "inputs": [
        {
          "internalType": "address",
          "name": "sender",
          "type": "address"
        },
        {
          "internalType": "address",
          "name": "receiver",
          "type": "address"
        },
        {
          "internalType": "uint256",
          "name": "amount",
          "type": "uint256"
        }
      ],
      "name": "sendCoin",
      "outputs": [
        {
          "internalType": "bool",
          "name": "sufficient",
          "type": "bool"
        }
      ],
      "payable": false,
      "stateMutability": "nonpayable",
      "type": "function"
    },
    {
      "constant": true,
      "inputs": [
        {
          "internalType": "address",
          "name": "addr",
          "type": "address"
        }
      ],
      "name": "getBalanceInEth",
      "outputs": [
        {
          "internalType": "uint256",
          "name": "",
          "type": "uint256"
        }
      ],
      "payable": false,
      "stateMutability": "view",
      "type": "function"
    },
    {
      "constant": true,
      "inputs": [
        {
          "internalType": "address",
          "name": "addr",
          "type": "address"
        }
      ],
      "name": "getBalance",
      "outputs": [
        {
          "internalType": "uint256",
          "name": "",
          "type": "uint256"
        }
      ],
      "payable": false,
      "stateMutability": "view",
      "type": "function"
    }
  ],
  "bytecode": "0x608060405234801561001057600080fd5b506040516104903803806104908339818101604052602081101561003357600080fd5b81019080805190602001909291905050506127106000808373ffffffffffffffffffffffffffffffffffffffff1673ffffffffffffffffffffffffffffffffffffffff16815260200190815260200160002081905550506103f7806100996000396000f3fe608060405234801561001057600080fd5b50600436106100415760003560e01c80630b40bd88146100465780637bd703e8146100cc578063f8b2cb4f14610124575b600080fd5b6100b26004803603606081101561005c57600080fd5b81019080803573ffffffffffffffffffffffffffffffffffffffff169060200190929190803573ffffffffffffffffffffffffffffffffffffffff1690602001909291908035906020019092919050505061017c565b604051808215151515815260200191505060405180910390f35b61010e600480360360208110156100e257600080fd5b81019080803573ffffffffffffffffffffffffffffffffffffffff1690602001909291905050506102d6565b6040518082815260200191505060405180910390f35b6101666004803603602081101561013a57600080fd5b81019080803573ffffffffffffffffffffffffffffffffffffffff16906020019092919050505061037a565b6040518082815260200191505060405180910390f35b6000816000808673ffffffffffffffffffffffffffffffffffffffff1673ffffffffffffffffffffffffffffffffffffffff1681526020019081526020016000205410156101cd57600090506102cf565b816000808673ffffffffffffffffffffffffffffffffffffffff1673ffffffffffffffffffffffffffffffffffffffff16815260200190815260200160002060008282540392505081905550816000808573ffffffffffffffffffffffffffffffffffffffff1673ffffffffffffffffffffffffffffffffffffffff168152602001908152602001600020600082825401925050819055508273ffffffffffffffffffffffffffffffffffffffff168473ffffffffffffffffffffffffffffffffffffffff167fddf252ad1be2c89b69c2b068fc378daa952ba7f163c4a11628f55a4df523b3ef846040518082815260200191505060405180910390a3600190505b9392505050565b600073__ConvertLib____________________________6396e4ee3d6102fb8461037a565b60026040518363ffffffff1660e01b8152600401808381526020018281526020019250505060206040518083038186803b15801561033857600080fd5b505af415801561034c573d6000803e3d6000fd5b505050506040513d602081101561036257600080fd5b81019080805190602001909291905050509050919050565b60008060008373ffffffffffffffffffffffffffffffffffffffff1673ffffffffffffffffffffffffffffffffffffffff16815260200190815260200160002054905091905056fea265627a7a72315820f352187274ad63783cb6daf65b4eea8185d67677f4257322392198c67cb5821c64736f6c63430005100032",
  "source": "pragma solidity ^0.5.0;\r\nimport \"./ConvertLib.sol\";\r\ncontract MoneyTransferTest1 {\r\n  mapping (address => uint) balances;\r\n\r\n  event Transfer(address indexed _from, address indexed _to, uint256 _value);\r\n\r\n  constructor(address origin) public {\r\n    balances[origin] = 10000;\r\n  }\r\n\r\n  function sendCoin(address sender,address receiver, uint amount) public returns(bool sufficient) {\r\n    if (balances[sender] < amount) return false;\r\n    balances[sender] -= amount;\r\n    balances[receiver] += amount;\r\n    emit Transfer(sender, receiver, amount);\r\n    return true;\r\n  }\r\n\r\n  function getBalanceInEth(address addr) public view returns(uint){\r\n    return ConvertLib.convert(getBalance(addr),2);\r\n  }\r\n\r\n  function getBalance(address addr) public view returns(uint) {\r\n    return balances[addr];\r\n  }\r\n}\r\n",
  "sourcePath": "C:\\Users\\rymou\\Documents\\clubisti\\front\\truffle\\contracts\\MoneyTransferTest1.sol",
  "compiler": {
    "name": "solc",
    "version": "0.5.16+commit.9c3226ce.Emscripten.clang"
  },
  "schemaVersion": "3.1.0",
  "updatedAt": "2020-05-05T14:43:42.197Z",
  "devdoc": {
    "methods": {}
  },
  "userdoc": {
    "methods": {}
  }
}