{
  "contractName": "Clubisti",
  "abi": [
    {
      "inputs": [],
      "payable": false,
      "stateMutability": "nonpayable",
      "type": "constructor"
    },
    {
      "anonymous": false,
      "inputs": [
        {
          "indexed": false,
          "internalType": "uint256",
          "name": "_value",
          "type": "uint256"
        }
      ],
      "name": "Transfer",
      "type": "event"
    },
    {
      "constant": true,
      "inputs": [
        {
          "internalType": "uint256",
          "name": "",
          "type": "uint256"
        }
      ],
      "name": "transactions",
      "outputs": [
        {
          "internalType": "uint256",
          "name": "id_offer",
          "type": "uint256"
        },
        {
          "internalType": "uint256",
          "name": "id_user",
          "type": "uint256"
        },
        {
          "internalType": "uint256",
          "name": "id_transaction",
          "type": "uint256"
        },
        {
          "internalType": "uint256",
          "name": "amount",
          "type": "uint256"
        }
      ],
      "payable": false,
      "stateMutability": "view",
      "type": "function"
    },
    {
      "constant": false,
      "inputs": [
        {
          "internalType": "uint256",
          "name": "id_offer",
          "type": "uint256"
        },
        {
          "internalType": "uint256",
          "name": "id_user",
          "type": "uint256"
        },
        {
          "internalType": "uint256",
          "name": "id_transaction",
          "type": "uint256"
        },
        {
          "internalType": "uint256",
          "name": "amount",
          "type": "uint256"
        }
      ],
      "name": "addTransaction",
      "outputs": [],
      "payable": false,
      "stateMutability": "nonpayable",
      "type": "function"
    },
    {
      "constant": true,
      "inputs": [],
      "name": "getTransactions",
      "outputs": [
        {
          "components": [
            {
              "internalType": "uint256",
              "name": "id_offer",
              "type": "uint256"
            },
            {
              "internalType": "uint256",
              "name": "id_user",
              "type": "uint256"
            },
            {
              "internalType": "uint256",
              "name": "id_transaction",
              "type": "uint256"
            },
            {
              "internalType": "uint256",
              "name": "amount",
              "type": "uint256"
            }
          ],
          "internalType": "struct Clubisti.Transaction[]",
          "name": "",
          "type": "tuple[]"
        }
      ],
      "payable": false,
      "stateMutability": "view",
      "type": "function"
    }
  ],
  "bytecode": "0x608060405234801561001057600080fd5b506104d6806100206000396000f3fe608060405234801561001057600080fd5b50600436106100415760003560e01c80635192a1071461004657806383920e90146100625780639ace38c214610080575b600080fd5b610060600480360361005b919081019061026b565b6100b3565b005b61006a610169565b60405161007791906103b7565b60405180910390f35b61009a60048036036100959190810190610242565b6101f0565b6040516100aa94939291906103f4565b60405180910390f35b600060405180608001604052808681526020018581526020018481526020018381525090806001815401808255809150509060018203906000526020600020906004020160009091929091909150600082015181600001556020820151816001015560408201518160020155606082015181600301555050507f248dd4076d0a389d795107efafd558ce7f31ae37b441ccb9a599c60868f480d58160405161015b91906103d9565b60405180910390a150505050565b60606000805480602002602001604051908101604052809291908181526020016000905b828210156101e757838290600052602060002090600402016040518060800160405290816000820154815260200160018201548152602001600282015481526020016003820154815250508152602001906001019061018d565b50505050905090565b600081815481106101fd57fe5b90600052602060002090600402016000915090508060000154908060010154908060020154908060030154905084565b60008135905061023c8161047c565b92915050565b60006020828403121561025457600080fd5b60006102628482850161022d565b91505092915050565b6000806000806080858703121561028157600080fd5b600061028f8782880161022d565b94505060206102a08782880161022d565b93505060406102b18782880161022d565b92505060606102c28782880161022d565b91505092959194509250565b60006102da8383610344565b60808301905092915050565b60006102f182610449565b6102fb8185610461565b935061030683610439565b8060005b8381101561033757815161031e88826102ce565b975061032983610454565b92505060018101905061030a565b5085935050505092915050565b60808201600082015161035a6000850182610399565b50602082015161036d6020850182610399565b5060408201516103806040850182610399565b5060608201516103936060850182610399565b50505050565b6103a281610472565b82525050565b6103b181610472565b82525050565b600060208201905081810360008301526103d181846102e6565b905092915050565b60006020820190506103ee60008301846103a8565b92915050565b600060808201905061040960008301876103a8565b61041660208301866103a8565b61042360408301856103a8565b61043060608301846103a8565b95945050505050565b6000819050602082019050919050565b600081519050919050565b6000602082019050919050565b600082825260208201905092915050565b6000819050919050565b61048581610472565b811461049057600080fd5b5056fea365627a7a72315820594a52971c84e9f3c5295f6fd4cf6ac06d770053e3bd8d9f4496129ff4558f5d6c6578706572696d656e74616cf564736f6c63430005100040",
  "source": "pragma solidity ^0.5.0;\npragma experimental ABIEncoderV2;\n\n\ncontract Clubisti {\n\n   struct Transaction {\n          uint id_offer;\n          uint id_user;\n          uint id_transaction;\n          uint amount;\n\n      }\n\t  Transaction[] public transactions;\n\nevent Transfer(uint256 _value);\n\n\tconstructor() public {\n\n\t}\n\n   function addTransaction( uint id_offer,uint id_user, uint id_transaction,  uint amount ) public{\n\n                transactions.push(Transaction({\n                    id_offer:id_offer,\n            id_user: id_user,\n             id_transaction:id_transaction,\n            amount:amount\n                })\n\n                 );\n\n         emit Transfer(amount);\n          }\n\n\n    function getTransactions() public view returns (Transaction[] memory){\n\t\treturn transactions;\n\t}\n\n  }\n\n\n\n\n\n\n\n\n\n\n",
  "sourcePath": "/home/sami/WEB/clubisti/front/contracts/clubisti.sol",
  "compiler": {
    "name": "solc",
    "version": "0.5.16+commit.9c3226ce.Emscripten.clang"
  },
  "schemaVersion": "3.2.0",
  "updatedAt": "2020-06-29T19:39:24.153Z",
  "networkType": "ethereum",
  "devdoc": {
    "methods": {}
  },
  "userdoc": {
    "methods": {}
  }
}