{
  "contractName": "Test",
  "abi": [
    {
      "inputs": [],
      "payable": false,
      "stateMutability": "nonpayable",
      "type": "constructor"
    },
    {
      "constant": true,
      "inputs": [
        {
          "internalType": "string",
          "name": "s",
          "type": "string"
        }
      ],
      "name": "string_tobytes",
      "outputs": [
        {
          "internalType": "bytes",
          "name": "",
          "type": "bytes"
        }
      ],
      "payable": false,
      "stateMutability": "view",
      "type": "function"
    },
    {
      "constant": false,
      "inputs": [
        {
          "internalType": "bytes",
          "name": "b",
          "type": "bytes"
        }
      ],
      "name": "convertingToString",
      "outputs": [
        {
          "internalType": "string",
          "name": "",
          "type": "string"
        }
      ],
      "payable": false,
      "stateMutability": "nonpayable",
      "type": "function"
    },
    {
      "constant": false,
      "inputs": [
        {
          "internalType": "bytes",
          "name": "newTransactions",
          "type": "bytes"
        },
        {
          "internalType": "uint256",
          "name": "id",
          "type": "uint256"
        }
      ],
      "name": "addDonation",
      "outputs": [],
      "payable": false,
      "stateMutability": "nonpayable",
      "type": "function"
    },
    {
      "constant": true,
      "inputs": [
        {
          "internalType": "uint256",
          "name": "id_transaction",
          "type": "uint256"
        }
      ],
      "name": "getTransactions",
      "outputs": [
        {
          "internalType": "bytes",
          "name": "",
          "type": "bytes"
        }
      ],
      "payable": false,
      "stateMutability": "view",
      "type": "function"
    },
    {
      "constant": false,
      "inputs": [],
      "name": "reset",
      "outputs": [],
      "payable": false,
      "stateMutability": "nonpayable",
      "type": "function"
    }
  ],
  "bytecode": "0x608060405234801561001057600080fd5b50610613806100206000396000f3fe608060405234801561001057600080fd5b50600436106100575760003560e01c80635742177c1461005c578063bc6d057714610103578063c7ab571e14610237578063cddaacbe1461036b578063d826f88f14610430575b600080fd5b6100886004803603602081101561007257600080fd5b810190808035906020019092919050505061043a565b6040518080602001828103825283818151815260200191508051906020019080838360005b838110156100c85780820151818401526020810190506100ad565b50505050905090810190601f1680156100f55780820380516001836020036101000a031916815260200191505b509250505060405180910390f35b6101bc6004803603602081101561011957600080fd5b810190808035906020019064010000000081111561013657600080fd5b82018360208201111561014857600080fd5b8035906020019184600183028401116401000000008311171561016a57600080fd5b91908080601f016020809104026020016040519081016040528093929190818152602001838380828437600081840152601f19601f8201169050808301925050505050505091929192905050506104ee565b6040518080602001828103825283818151815260200191508051906020019080838360005b838110156101fc5780820151818401526020810190506101e1565b50505050905090810190601f1680156102295780820380516001836020036101000a031916815260200191505b509250505060405180910390f35b6102f06004803603602081101561024d57600080fd5b810190808035906020019064010000000081111561026a57600080fd5b82018360208201111561027c57600080fd5b8035906020019184600183028401116401000000008311171561029e57600080fd5b91908080601f016020809104026020016040519081016040528093929190818152602001838380828437600081840152601f19601f8201169050808301925050505050505091929192905050506104fd565b6040518080602001828103825283818151815260200191508051906020019080838360005b83811015610330578082015181840152602081019050610315565b50505050905090810190601f16801561035d5780820380516001836020036101000a031916815260200191505b509250505060405180910390f35b61042e6004803603604081101561038157600080fd5b810190808035906020019064010000000081111561039e57600080fd5b8201836020820111156103b057600080fd5b803590602001918460018302840111640100000000831117156103d257600080fd5b91908080601f016020809104026020016040519081016040528093929190818152602001838380828437600081840152601f19601f8201169050808301925050505050505091929192908035906020019092919050505061050c565b005b610438610537565b005b60606000808381526020019081526020016000208054600181600116156101000203166002900480601f0160208091040260200160405190810160405280929190818152602001828054600181600116156101000203166002900480156104e25780601f106104b7576101008083540402835291602001916104e2565b820191906000526020600020905b8154815290600101906020018083116104c557829003601f168201915b50505050509050919050565b60608082905080915050919050565b60608082905080915050919050565b816000808381526020019081526020016000209080519060200190610532929190610539565b505050565b565b828054600181600116156101000203166002900490600052602060002090601f016020900481019282601f1061057a57805160ff19168380011785556105a8565b828001600101855582156105a8579182015b828111156105a757825182559160200191906001019061058c565b5b5090506105b591906105b9565b5090565b6105db91905b808211156105d75760008160009055506001016105bf565b5090565b9056fea265627a7a723158208ed537af67192566d87bc11e1963f739f60fd73c4fd0711d67afff5cdeaf1db864736f6c63430005100032",
  "source": "pragma solidity ^0.5.0;\n\n\n\ncontract Test {\n\n  struct Transaction {\n\n    uint id_offer;\n    uint id_user;\n    uint amount;\n\n  }\n\n  mapping(uint256 => bytes) transactions;\n\n\n  constructor() public {\n\n  }\n  function string_tobytes( string memory s) public view returns (bytes memory){\n    bytes memory b3 = bytes(s);\n    return b3;\n  }\n\n  function convertingToString(bytes memory b)public returns(string memory){\n\n    string memory converted = string(b);\n    return converted;\n  }\n\n\n  function addDonation( bytes  memory newTransactions, uint id ) public{\n\n    // idT,idU,idO,amount;idT2...\n    transactions[id] = newTransactions;\n\n  }\n\n  function getTransactions( uint id_transaction) public view returns (bytes  memory){\n    return transactions[ id_transaction];\n  }\n\n  function reset() public{\n\n\n  }\n\n}\n\n\n\n",
  "sourcePath": "/home/sami/WEB/clubisti/front/contracts/Test.sol",
  "compiler": {
    "name": "solc",
    "version": "0.5.16+commit.9c3226ce.Emscripten.clang"
  },
  "schemaVersion": "3.2.0",
  "updatedAt": "2020-06-29T19:39:24.157Z",
  "networkType": "ethereum",
  "devdoc": {
    "methods": {}
  },
  "userdoc": {
    "methods": {}
  }
}